:020000040000FA
:0400000074EF06F0A3
:08000800056ED8CF06F0E0CF31
:1000100007F00001E9CF0DF0EACF08F0E1CF09F0D9
:10002000E2CF0AF0D9CF0BF0DACF0CF0F3CF14F017
:10003000F4CF15F0FACF16F000C00FF001C010F0A9
:1000400002C011F003C012F004C013F0F2AA2CEFAA
:1000500000F0F2B408EF02F09DAA32EF00F09EBA71
:10006000DFEF01F00FC000F010C001F011C002F08E
:1000700012C003F013C004F00E8E0DC0E9FF08C0DB
:10008000EAFF09C0E1FF0AC0E2FF0BC0D9FF0CC0C4
:10009000DAFF14C0F3FF15C0F4FF16C0FAFF0550D5
:1000A00007C0E0FF06C0D8FF1000F2CF0EF0F29EAE
:1000B000F76AC40FF66E000EF7220900F5500EBE67
:1000C000F28E1200536567756E646F7320657374EA
:1000D00061626C656369646F7320636F6E2025696C
:1000E00020200D00F2CF0EF0F29EF76AFE0FF66EA2
:1000F000000EF7220900F5500EBEF28E12002053BA
:100100006567756E646F7320496E76616C69646FA4
:10011000732C20726563756572646120717565204A
:1001200065732064652030302061203539200D0052
:10013000F2CF0EF0F29EF76A4A0FF66E010EF7222A
:100140000900F5500EBEF28E12004E756D65726F8D
:10015000206E6F2076616C69646F200D0000F2CF15
:100160000EF0F29EF76A780FF66E010EF722090084
:10017000F5500EBEF28E12004D696E75746F7320CD
:1001800065737461626C656369646F7320636F6E1D
:1001900020256920200D0000F2CF0EF0F29EF76AB4
:1001A000B20FF66E010EF7220900F5500EBEF28E68
:1001B0001200204D696E75746F7320496E76616C04
:1001C00069646F732C207265637565726461207158
:1001D00075652065732064652030302061203539D5
:1001E000200D0000F2CF0EF0F29EF76AFE0FF66EC1
:1001F000010EF7220900F5500EBEF28E1200486F74
:100200007261732065737461626C656369646F7396
:1002100020636F6E20256920200D0000F2CF0EF0C4
:10022000F29EF76A360FF66E020EF7220900F550BD
:100230000EBEF28E120020486F72617320496E76F6
:10024000616C69646F732C2072656375657264619B
:100250002071756520657320646520303020612031
:100260003233200D0000F2CF0EF0F29EF76A800FBD
:10027000F66E020EF7220900F5500EBEF28E120045
:10028000446961732065737461626C656369646F4E
:100290007320636F6E20256920200D00F2CF0EF0D1
:1002A000F29EF76AB60FF66E020EF7220900F550BD
:1002B0000EBEF28E1200204469617320496E766191
:1002C0006C69646F732C207265637565726461205C
:1002D000717565206573206465203030206120339E
:1002E00031200D00F2CF0EF0F29EF76AFE0FF66E8F
:1002F000020EF7220900F5500EBEF28E12004D6577
:10030000732065737461626C656369646F732063E5
:100310006F6E20256920200D0000F2CF0EF0F29EB6
:10032000F76A340FF66E030EF7220900F5500EBE81
:10033000F28E1200204D657320496E76616C6964FF
:100340006F732C20726563756572646120717565C9
:100350002065732064652030312061203132200D0A
:100360000000F2CF0EF0F29EF76A7C0FF66E030EDD
:10037000F7220900F5500EBEF28E12005965617227
:10038000732065737461626C656369646F732020A8
:100390000D00F2CF0EF0F29EF76AAC0FF66E030E70
:1003A000F7220900F5500EBEF28E120056616C6FF6
:1003B0007220496E76616C69646F200D00009EAA00
:1003C00024D09EAAFED7AECF6FF06FC070F07050F1
:1003D00008080DE152520AE0036A5250200FE96EFC
:1003E000000E0320EA6E200EEF6E52060ED0525021
:1003F0003208D8A0526A036A5250200FE96E000EEC
:100400000320EA6E6FC0EFFF522A9E9A32EF00F08F
:10041000010E186EF29432EF00F0629061C063F04A
:1004200063502F0804E26350390801E36280000E34
:1004300062B0010E016E000C61C062F0300E625EAF
:1004400062C001F0000C080E016E00008B969496BD
:10045000000069368B98D8B09488D8A09498948678
:1004600082A6FED7012EF1D700008B96949600004D
:10047000948800000000948682A6FED7016A0000DE
:1004800082B801808B9694968B989498000C6D504E
:10049000016A6C5C03E26CC000F00CD0006A080ECC
:1004A0006E6E6C3600366D50005CD8B0006E013652
:1004B0006E2EF7D7000C6B6A68C06CF00A0E6D6E7A
:1004C000E6DF01C069F069500A0DF350685C6A6E9E
:1004D00069C06BF06B3AF00E6B166A506B126BC012
:1004E00001F0000C679E3F0E65169488000094860C
:1004F00000008B98949800008B969496D00E696EAD
:10050000A2DF696AA0DF67C068F0D5DF01C068F0CC
:1005100001C069F098DF66C068F0CDDF01C068F007
:1005200001C069F090DF65C068F0C5DF01C068F008
:1005300001C069F088DF64C068F0BDDF01C068F009
:1005400001C069F080DF61C068F0B5DF01C068F00C
:1005500001C069F078DF62C068F0ADDF01C068F00B
:1005600001C069F070DF63C068F0A5DF01C068F00A
:1005700001C069F068DF800E696E65DF9498000045
:10058000948682A6FED7000000D000009488000068
:10059000000C200E63A8300E646E62C000F062AEE4
:1005A00007D0001E002A00C062F02D0E646E638E1C
:1005B000015062C06CF0640E6D6E69DF00C062F0C5
:1005C000300E0124656E62C06CF00A0E6D6E5FDF46
:1005D000300E0024676E300E0124666E64C000F099
:1005E00063A602D063AE639463B80BD063AE22D02F
:1005F00063B420D000C065F063B21CD000C066F0C8
:1006000019D0300E655C16E100C065F0200E646EF6
:1006100063A604D06394638263AE6392300E665C1B
:1006200009E100C066F0200E656E63A6F7D76392FD
:1006300063AE639063A404D064509EA8FED7AD6EF1
:1006400063A204D065509EA8FED7AD6E63A004D00F
:1006500066509EA8FED7AD6E67509EA8FED7AD6EC1
:10066000000C2150730A10E01E0AD8B486D0050A87
:10067000D8B4FCD02C0AD8B473D1090AD8B4EAD1C2
:100680000C0AD8B465D2B2D222C061F0C6DE0152E3
:10069000D8B466D023C061F0C0DE015261E022C050
:1006A00061F0CADE01500A0DF3CF56F023C061F0AD
:1006B000C3DE01C055F055505624196E19503B0841
:1006C0002DE31CC061F01DC062F01EC063F01FC0AE
:1006D00064F01BC065F01AC066F019C067F002DF55
:1006E000616A6150E2DC612A006E00509EA8FED76C
:1006F000AD6E1A0E615CF5E119C062F01F0E636EFB
:1007000048DF200E9EA8FED7AD6E200E9EA8FED715
:10071000AD6E0D0E9EA8FED7AD6E21D0616A615000
:10072000E1DC612A006E00509EA8FED7AD6E130E6C
:10073000615CF5E1030E626E200E9EA8FED7AD6EE1
:10074000622EFAD7130E636E6350CCDC632A006E00
:1007500000509EA8FED7AD6E310E635CF5E10CD063
:10076000616A6150E5DC612A006E00509EA8FED7E8
:10077000AD6E120E615CF5E147D222C061F04DDE34
:100780000152D8B466D023C061F047DE015261E067
:1007900022C061F051DE01500A0DF3CF58F023C0A2
:1007A00061F04ADE01C057F0575058241A6E1A50B3
:1007B0003B082DE31CC061F01DC062F01EC063F059
:1007C0001FC064F01BC065F01AC066F019C067F066
:1007D00089DE616A6150C3DC612A006E00509EA808
:1007E000FED7AD6E190E615CF5E11AC062F01F0E06
:1007F000636ECFDE200E9EA8FED7AD6E200E9EA8A3
:10080000FED7AD6E0D0E9EA8FED7AD6E21D0616AEB
:100810006150C2DC612A006E00509EA8FED7AD6E0A
:10082000120E615CF5E1030E626E200E9EA8FED7EB
:10083000AD6E622EFAD7120E636E6350ADDC632A82
:10084000006E00509EA8FED7AD6E300E635CF5E1E1
:100850000CD0616A61506CDC612A006E00509EA869
:10086000FED7AD6E120E615CF5E1CED122C061F013
:10087000D4DD0152D8B466D023C061F0CEDD015280
:1008800061E022C061F0D8DD01500A0DF3CF5AF0CB
:1008900023C061F0D1DD01C059F059505A241B6EBC
:1008A0001B5017082DE31CC061F01DC062F01EC074
:1008B00063F01FC064F01BC065F01AC066F019C079
:1008C00067F010DE616A61508DDC612A006E0050B5
:1008D0009EA8FED7AD6E170E615CF5E11AC062F0FE
:1008E0001F0E636E56DE200E9EA8FED7AD6E200E44
:1008F0009EA8FED7AD6E0D0E9EA8FED7AD6E21D080
:10090000616A61508BDC612A006E00509EA8FED7A0
:10091000AD6E100E615CF5E1030E626E200E9EA8B6
:10092000FED7AD6E622EFAD7100E636E635076DC82
:10093000632A006E00509EA8FED7AD6E2E0E635C3B
:10094000F5E10DD0616A615098EC00F0612A006E0B
:1009500000509EA8FED7AD6E120E615CF4E154D13A
:1009600022C061F05ADD0152D8B466D023C061F0D4
:1009700054DD015261E022C061F05EDD01500A0DDC
:10098000F3CF5CF023C061F057DD01C05BF05B503A
:100990005C241C6E1C501F082DE31CC061F01DC0A0
:1009A00062F01EC063F01FC064F01BC065F01AC087
:1009B00066F019C067F096DD616A615054DC612A07
:1009C000006E00509EA8FED7AD6E160E615CF5E17C
:1009D0001CC062F01F0E636EDCDD200E9EA8FED7E9
:1009E000AD6E200E9EA8FED7AD6E0D0E9EA8FED752
:1009F000AD6E21D0616A615051DC612A006E0050F9
:100A00009EA8FED7AD6E0F0E615CF5E1030E626E1F
:100A1000200E9EA8FED7AD6E622EFAD70F0E636E23
:100A200063503CDC632A006E00509EA8FED7AD6E7A
:100A30002D0E635CF5E10DD0616A615098EC00F019
:100A4000612A006E00509EA8FED7AD6E120E615C4A
:100A5000F4E1DAD022C061F0E0DC0152D8B46AD00F
:100A600023C061F0DADC0152D8B464D022C061F056
:100A7000E3DC01500A0DF3CF5EF023C061F0DCDC53
:100A800001C05DF05D505E241D6E1D5230E01D50B2
:100A90000C082DE31CC061F01DC062F01EC063F0A5
:100AA0001FC064F01BC065F01AC066F019C067F083
:100AB00019DD616A615016DC612A006E00509EA843
:100AC000FED7AD6E150E615CF5E11DC062F01F0E24
:100AD000636E5FDD200E9EA8FED7AD6E200E9EA831
:100AE000FED7AD6E0D0E9EA8FED7AD6E22D0616A08
:100AF000615013DC612A006E00509EA8FED7AD6ED7
:100B00000E0E615CF5E1030E626E200E9EA8FED70C
:100B1000AD6E622EFAD70E0E636E63508DEC01F04F
:100B2000632A006E00509EA8FED7AD6E2C0E635C4B
:100B3000F4E10DD0616A615098EC00F0612A006E1A
:100B400000509EA8FED7AD6E120E615CF4E15CD041
:100B500022C061F062DC01523BE023C061F05DDC49
:100B6000015236E024C061F058DC015231E025C06A
:100B700061F053DC01522CE024C061F05DDC0150D7
:100B80000A0DF3CF60F025C061F056DC01C05FF0C4
:100B90005F5060241E6E1CC061F01DC062F01EC05C
:100BA00063F01FC064F01BC065F01AC066F019C086
:100BB00067F098DC616A6150B1EC01F0612A006E67
:100BC00000509EA8FED7AD6E150E615CF4E10DD00D
:100BD000616A615098EC00F0612A006E00509EA896
:100BE000FED7AD6E120E615CF4E10ED0616A615009
:100BF000C9EC01F0612A006E00509EA8FED7AD6ED0
:100C0000100E615CF4E100D03BEF06F0556A5550E0
:100C1000525C0BE3036A5550200FE96E000E03206F
:100C2000EA6E200EEF6E552AF2D73CEF06F0549094
:100C30005492536A5350525C19E3036A5350200F85
:100C4000E96E000E0320EA6EEF503C0802E154808A
:100C50000BD0036A5350200FE96E000E0320EA6E9A
:100C6000EF503E0801E15482532AE4D754A004D047
:100C700054A202D0F6D4CAD79BEF06F0080E586EE5
:100C800000C059F094880000948682A6FED782B8EE
:100C9000D88082A8D8900136000094968B96582E62
:100CA000F1D7948800008B985950D8A494980000EC
:100CB000948682A6FED700008B96949600008B98AF
:100CC0009498000C59C05AF05A3A0F0E5A165A50BE
:100CD0000A0DF3CF5AF059500F0B5B6E5A505B243C
:100CE0005C6E5CC001F0000CF86AD09E0D8EEA6A62
:100CF000E96AB896190EAF6EA60EAC6E900EAB6E8A
:100D0000C150C00B0F09C16E070EB46E186A196A84
:100D10001A6A1B6A1C6A1D6A1E6A1F6A526AC00E22
:100D2000F212F2869D8AF28A830ED56E0B0ED76E72
:100D3000DC0ED66E7CD71852D8B400D1948800004F
:100D4000948600008B98949800008B969496D00E11
:100D5000696E23EC02F0030E696E23EC02F09488B6
:100D600000009486000082A6FED78B98949800001D
:100D70008B969496D10E696E23EC02F0010E006EF4
:100D80007DDF01507F0B546E596E9CDF01C01FF058
:100D9000010E006E73DF01503F0B546E596E92DFEF
:100DA00001C01CF0010E006E69DF01501F0B546E74
:100DB000596E88DF01C01DF0006A60DF01C053F08A
:100DC00001C059F07FDF01C01EF0949800009486A6
:100DD00082A6FED7000000D000009488000094880E
:100DE0000000948600008B98949800008B9694964F
:100DF000D00E696E23EC02F0696A23EC02F094884D
:100E000000009486000082A6FED78B98949800007C
:100E10008B969496D10E696E23EC02F0010E006E53
:100E20002DDF01507F0B546E596E4CDF01C019F05D
:100E3000010E006E23DF01507F0B546E596E42DFAE
:100E400001C01AF0006A1ADF01503F0B546E596E50
:100E500039DF01C01BF094980000948682A6FED76B
:100E6000000000D00000948800001CC062F01F0E3B
:100E7000636EC9EC02F0200E9EA8FED7AD6E2F0E59
:100E80009EA8FED7AD6E200E9EA8FED7AD6E1DC0EB
:100E900062F01F0E636EC9EC02F0200E9EA8FED712
:100EA000AD6E2F0E9EA8FED7AD6E200E9EA8FED76B
:100EB000AD6E1EC062F01F0E636EC9EC02F0200E14
:100EC0009EA8FED7AD6E0D0E9EA8FED7AD6E1BC0C0
:100ED00062F01F0E636EC9EC02F0200E9EA8FED7D2
:100EE000AD6E3A0E9EA8FED7AD6E200E9EA8FED720
:100EF000AD6E1AC062F01F0E636EC9EC02F0200ED8
:100F00009EA8FED7AD6E3A0E9EA8FED7AD6E200EFF
:100F10009EA8FED7AD6E19C062F01F0E636EC9ECBD
:100F200002F0200E9EA8FED7AD6E0D0E9EA8FED735
:100F3000AD6E0D0E9EA8FED7AD6E186AFBD60300EF
:020000040030CA
:0E0000000001181E008381000FC00FE00F40AA
:00000001FF
;PIC18F4520
